:020000040000FA
:10000000831686018312860106148616FF309A0035
:10001000FF309B0080309C009C0B0C289B0B0B2816
:100020009A0B0928860106140616FF309A00FF3045
:100030009B001A309C009C0B1B289B0B1A289A0BC8
:100040001828860106158615FF309A00FF309B00A0
:1000500080309C009C0B2A289B0B29289A0B272870
:10006000860186140616FF309A00FF309B001A3076
:0E0070009C009C0B39289B0B38289A0B3628D5
:02007E0000344C
:0200800000344A
:02400E00F33F7E
:00000001FF
